:020000040000FA
:04000000A8EF3FF036
:107F4A00000E836E12000001E3EF3FF0016E819490
:107F5A0001C0C9FFC7A0B4EF3FF0B6EF3FF0AFEFE3
:107F6A003FF012000F0EC16E93809392949E9394E9
:107F7A00000E956EC79EC79C010EC66EC688C68A3D
:107F8A001200000E036E000E026E410E016EEE0E1E
:107F9A00E82EFED7012EFCD700D0024A032A03BEE0
:107FAA00E0EF3FF0035009E1140E025CD8A0E0EFC5
:107FBA003FF0E2EF3FF0CAEF3FF01200B7EC3FF0BC
:107FCA00A5EC3FF0010E926E000E806E820E046EDA
:107FDA00DE0EE82EFED7042EFCD78050ABEC3FF025
:107FEA008184C9CF05F005C083FFC6EC3FF0EBEFF3
:067FFA003FF000EF00F073
:020000040020DA
:08000000FFFFFFFFFFFFFFFF00
:020000040030CA
:0E000000040E181EFF8381FF0FC00FE00F409B
:00000001FF
