:020000040000FA
:04000000D0EF3FF00E
:107F9A00000E836E1200026A016A0001E1EF3FF0EF
:107FAA00036E03C0C9FFC7A0DDEF3FF0DFEF3FF06C
:107FBA00D8EF3FF0C69C1200F0EC3FF0CDEC3FF05A
:107FCA00C9CF04F004C083FF0428D5EC3FF0E5EFE5
:107FDA003FF000EF00F00F0EC16E93809382949EE3
:107FEA00928A000E956EC79EC79C050EC66EC688FD
:067FFA00C68AC69C1200BD
:020000040020DA
:08000000FFFFFFFFFFFFFFFF00
:020000040030CA
:0E000000040E181EFF8381FF0FC00FE00F409B
:00000001FF
